:1000000075C1000098C1000096C1000094C10000B5
:1000100092C1000090C100008EC100008CC10000A0
:100020008AC1000088C1000062C5000084C10000D0
:10003000F5C5000080C100007EC100007CC1000049
:100040007AC1000078C1000076C1000074C10000D0
:1000500072C1000070C100006EC100006CC10000E0
:100060006AC1000068C1000066C1000064C10000F0
:1000700062C1000060C100005EC100005CC1000000
:100080005AC1000058C1000056C1000054C1000010
:1000900052C1000050C100004EC100004CC1000020
:1000A0004AC1000048C1000046C1000044C1000030
:1000B00042C1000040C10000E6C500003CC1000094
:1000C0003AC1000038C1000036C1000034C1000050
:1000D00032C1000030C100002EC100002CC1000060
:1000E0002AC1000028C1000026C1000024C1000070
:1000F00022C1000020C100001EC100001CC1000080
:100100001AC1000018C1000016C1000014C100008F
:1001100012C1000010C100000EC100005EC5000049
:100120000AC1000008C1000006C1000004C10000AF
:1001300002C1000000C10000FEC00000FCC00000C1
:10014000FAC00000F8C00000F6C00000F4C00000D3
:10015000F2C00000F0C00000EEC00000ECC00000E3
:10016000EAC00000E8C00000E6C00000E4C00000F3
:10017000E2C00000E0C00000DEC00000DCC0000003
:10018000DAC00000D8C00000D6C00000D4C0000013
:10019000D2C00000D0C00000CEC00000CCC0000023
:1001A000CAC00000C8C00000C6C00000C4C0000033
:1001B000C2C00000C0C00000BEC00000BCC0000043
:1001C000BAC00000B8C00000B6C00000B4C0000053
:1001D000B2C00000B0C00000AEC00000ACC0000063
:1001E000AAC00000A8C00000A6C00000A4C0000073
:1001F000A2C00000A0C000009EC0000008081A08AD
:1002000028083108350843083C08550857085D0898
:100210005F0808000000BE922449123EABAAAA2A39
:10022000BECDCCCC4C3E00000080BEABAAAAAA3EFC
:1002300000000000BF000000803F00000000000838
:100240004178D3BB4387D1133D190E3CC3BD4282D5
:10025000AD2B3E68EC8276BED98FE1A93E4C80EF93
:10026000FFBE01C4FF7F3F00000000005550533A1D
:10027000204C54433430313120382A4E694D6820A7
:10028000313930306D416800000000002842756946
:100290006C643A204D617920313820323031392078
:1002A00032313A31373A35382900000048573A2080
:1002B00050692D506F7765726D616E2E302E38202B
:1002C0000000000000000000000000003131343464
:1002D000000000000000000000000000000000001E
:1002E00000000000000000000000000011241FBEFC
:1002F000CFEFCDBFDFE3DEBF00E00CBF18BE19BEFD
:100300001ABE1BBE10E2A0E0B0E2E0E8F9E200E0B5
:100310000BBF02C007900D92A431B107D9F71BBEE5
:1003200021E2A4E1B0E201C01D92A438B207E1F7D6
:100330007CD70C94BE1464CEE0E0F2E080A180682B
:1003400080A30895E0E0F2E081A30895E0E0F2E008
:1003500084A195A1089580911420843010F010920A
:100360001420E0911420F0E0E05FFF4D80810895BB
:10037000809114208F5F843018F48093142002C081
:1003800010921420E0911420F0E0E05FFF4D808196
:10039000089592E09093CA01E82FF0E084911092C2
:1003A000CA010895CF93DF93C0E0D2E080E28A8350
:1003B000F0DF8C8781E2EDDF8D87198287E08C8307
:1003C00081E0888388A383E08AA3DF91CF91089599
:1003D000613118F4FC016083089520E1FC01208361
:1003E0000895FC01CB0121813281438154816581D3
:1003F0007681421B530B61097109480F591F611D1A
:10040000711D4383548365837683DB01CA010080B9
:1004100004C0B695A795979587950A94D2F78183DE
:1004200092830895FC01848181110EC082819381A1
:100430006817790738F482819381861B970B828332
:1004400093830895128213820895FC01608371835F
:100450006283738314820895FC0180819181828379
:10046000938314820895FC012281338181E0232B40
:1004700009F080E0089521E0FC0124830895EF92C3
:10048000FF920F93CF93DF9300D0CDB7DEB77C01FF
:1004900069835A834B8300E023E0AE014F5F5F4FD7
:1004A000DC0112966C9112978D919C910E942B0FFA
:1004B00024E630E0D701ED91FC919789992361F012
:1004C0002115310559F021503109EFE1F3E0319761
:1004D000F1F700C00000EECF232B09F480E0239653
:1004E000CDBFDEBFDF91CF910F91FF90EF900895C8
:1004F000CF92DF92EF92FF920F93CF93DF931F92F1
:10050000CDB7DEB77C0169836A0102E021E0AE016C
:100510004F5F5F4FDC0112966C9112978D919C9109
:100520000E942B0F24E630E0D701ED91FC919789D2
:10053000992361F021153105C9F021503109EFE10E
:10054000F3E03197F1F700C00000EECF232B71F0FC
:10055000238530E0322F2227D6012D933C9311972B
:100560009485290F311D2D933C9301C080E00F909D
:10057000DF91CF910F91FF90EF90DF90CF90089592
:10058000CF93DF93EC01688379834F7040644A8393
:1005900040E050E860E073DF1B821C82DF91CF9166
:1005A00008954F925F926F927F928F929F92AF9237
:1005B000BF92CF92DF92EF92FF920F931F93CF9350
:1005C000DF93EC015B014A01280139012FE632E19A
:1005D00043E85AE3C301B2010E948213A7019601C6
:1005E0000E9482139B01AC016CEA75EC87E29DE3EB
:1005F0000E941B120E94E5130E9483126B017C0172
:100600006D837E834F82588669867A8620E030E04B
:1006100040EA51E4C301B2010E94821320E030E0BD
:100620004AE754E40E941B126B877C878D879E8764
:10063000A60165E0CE0123DFF82EA4014F695160C9
:100640004A295B2960E0CE011ADF811102C08F2D9B
:1006500001C081E0DF91CF911F910F91FF90EF904A
:10066000DF90CF90BF90AF909F908F907F906F90D2
:100670005F904F900895EF92FF920F931F93CF9347
:10068000DF931F921F92CDB7DEB78C017B01AE01C5
:100690004F5F5F4F62E02CDF29813A8120FF04C069
:1006A00091E0F801948302C0F801148221FF04C094
:1006B00091E0F801938302C0F8011382882341F08E
:1006C000F8019381992321F0287FF701208331835A
:1006D0000F900F90DF91CF911F910F91FF90EF90AE
:1006E0000895AB0161E004CFFF920F931F93CF9366
:1006F000DF93EC018B014D815E8165E0C0DEF82E59
:10070000A80164E0CE01F4DE8F21DF91CF911F912B
:100710000F91FF900895FB0120E030E090E06081B0
:10072000660FAC01022E02C0559547950A94E2F778
:1007300040FD616060832F5F3F4F3196243031056B
:1007400071F70895E82FF0E0E55EFF4D80818C7F22
:10075000808308958F929F92AF92BF92CF92DF9243
:10076000EF92FF920F931F93CF93DF93142F6901A2
:100770007B015C01EA018AE0982E882483948C2F07
:10078000811B801708F047C0F701208122FF07C0B6
:10079000F50190819370933039F091111DC0D2DF33
:1007A0001882F601108218C08881811112C0216060
:1007B000F7012083F60180818F3F11F08F5F8083E6
:1007C0009882F6018081843090F4F60180818D302A
:1007D000A0F48881811118C02196FFEFCF1ADF0A9B
:1007E0008FEFE81AF80AEFEFAE1ABE0AC8CFF7018A
:1007F000808184FFEACF8882E8CFF701808185FF7E
:10080000E8CF82608083E5CFF701908193FFE4CF4A
:1008100081508883E1CFDF91CF911F910F91FF909D
:10082000EF90DF90CF90BF90AF909F908F90089502
:100830000F93FC01199580931A2066E170E26BDF3B
:1008400004E023E230E24FE150E26BE170E286E146
:1008500090E280DF0F910895E82FF0E0E55EFF4D14
:1008600080810895E82FF0E0E55EFF4D6C7F808188
:10087000862B808308958F929F92AF92BF92CF92E2
:10088000DF92EF92FF920F931F93CF93DF936C0150
:100890005B0182E3882E80E2982E97E3E92E90E2B6
:1008A000F92E0DE210E2C0E0D0E08C2FF40121918E
:1008B0004F0120FF1EC021FF19C0F80190819F5FEA
:1008C0009083FE01E85DFF4D3081931710F0F80131
:1008D0001082F8019081F70122FF04C02081921755
:1008E00048F405C02081291728F401C08C2FF60197
:1008F00002C08C2FF50119952196FFEFEF1AFF0A20
:100900000F5F1F4FC530D10581F6DF91CF911F9149
:100910000F91FF90EF90DF90CF90BF90AF909F909E
:100920008F900895E82FF0E0DF01A35DBF4D1C928A
:10093000EE5CFF4D8081662311F0816001C08E7FE7
:1009400080830895E82FF0E0DF01A35DBF4D1C9286
:10095000EE5CFF4D8081662311F0826001C08D7FC7
:100960008083089590E0FC01E85DFF4D6083FC0109
:10097000E95CFF4D40830895E82FF0E0DF01A35DBF
:10098000BF4D1C92EE5CFF4D8081662311F08460A8
:1009900001C08B7F808308951F93CF93DF931F92B5
:1009A000CDB7DEB7182F4983BDDF4981642F812F72
:1009B0000F90DF91CF911F91C5CFE0E4F6E08481E5
:1009C0008B7F84830895E0E4F6E0848184608483EF
:1009D000089520911520E22FF0E0EE0FFF1FE05068
:1009E000F04E808391832F5F283018F420931520D8
:1009F00002C010921520E0E0F0E280E090E021914A
:100A00003191820F931F20E2E031F207C1F79C0180
:100A100083E0369527958A95E1F729308BE03807F2
:100A200030F481E02733354018F480E0089582E007
:100A300008958091680683FB882780F991E08927D3
:100A40009091480694FF82609091480696FF8460DA
:100A50009091680690FF886008958230A9F028F48C
:100A6000882361F0813031F00895833089F084303B
:100A700099F0089580916406826003C080916406B5
:100A8000846080936406089580914406886007C05E
:100A900080914406806203C0809144068068809300
:100AA000440608958230A9F028F4882361F081304B
:100AB00031F00895833089F0843099F00895809161
:100AC00064068D7F03C0809164068B7F80936406EB
:100AD000089580914406877F07C0809144068F7DEA
:100AE00003C0809144068F778093440608951F9237
:100AF0000F920FB60F92112408B60F9218BE09B6C6
:100B00000F9219BE0BB60F921BBE2F933F934F93BC
:100B10005F936F937F938F939F93AF93BF93EF9365
:100B2000FF93E0915520F091562080818160808371
:100B3000E0915520F091562080818260808362E3AD
:100B400070E086EF90E26EDC62E370E08CE390E2AE
:100B500069DC62E370E08BEF90E264DC62E370E0FA
:100B600086E791E25FDC8BEF90E27DDC882339F051
:100B7000E0915320F091542080818860808386E743
:100B800091E271DC882391F086E791E265DC61E017
:100B900070E080E091E246DC61E070E080E790E2A6
:100BA00041DC61E070E089E091E23CDCFF91EF9193
:100BB000BF91AF919F918F917F916F915F914F9175
:100BC0003F912F910F900BBE0F9009BE0F9008BE62
:100BD0000F900FBE0F901F9018951F920F920FB697
:100BE0000F92112408B60F9218BE0BB60F921BBEBF
:100BF0008F93EF93FF93E0915520F09156208081E1
:100C000084608083FF91EF918F910F900BBE0F90C6
:100C100008BE0F900FBE0F901F9018951F920F9255
:100C20000FB60F92112408B60F9218BE09B60F9294
:100C300019BE0BB60F921BBE2F933F934F935F933A
:100C40006F937F938F939F93AF93BF93EF93FF9394
:100C50008DEA90E20E94BF10FF91EF91BF91AF919A
:100C60009F918F917F916F915F914F913F912F91C4
:100C70000F900BBE0F9009BE0F9008BE0F900FBED5
:100C80000F901F9018951F920F920FB60F9211247C
:100C900008B60F9218BE09B60F9219BE0BB60F9286
:100CA0001BBE2F933F934F935F936F937F938F93CD
:100CB0009F93AF93BF93EF93FF9385E890E20E94D9
:100CC000CD0FFF91EF91BF91AF919F918F917F9148
:100CD0006F915F914F913F912F910F900BBE0F90AD
:100CE00009BE0F9008BE0F900FBE0F901F90189571
:100CF000CF92DF92EF92FF92E0914320F091442057
:100D000010821182128213826091412070914220E0
:100D100044E050E020E030E0C080D180E280F38009
:100D2000DB01A20FB31F8C9190E0042E02C0880F4C
:100D3000991F0A94E2F7AA2797FDA095BA2F8C294C
:100D40009D29AE29BF2980839183A283B383C0806C
:100D5000D180E280F380D9011196A60FB71F8C9144
:100D600090E0DA01149702C0880F991FAA95E2F764
:100D7000AA2797FDA095BA2F8C299D29AE29BF29B6
:100D800080839183A283B3832E5F3F4F485F5F4F81
:100D90002830310509F6FF90EF90DF90CF9008954D
:100DA00020E030E0FB01E20FF31FDC014D91CD01AB
:100DB00040832F5F3F4F20323105A1F70895FC019A
:100DC0002081FB0121E030E0DC01A20FB31F4C9138
:100DD00041932F5F3F4F20323105B1F7089520E056
:100DE00030E0DB01A20FB31FFC01E20FF31FE4911F
:100DF000EC932F5F3F4F2032310599F70895CF9341
:100E0000DF93C0915E20D0915F208DE090E00E9442
:100E1000941488839983C0916020D09161208BE0E5
:100E200090E00E94941488839983C0916220D091AD
:100E300063208AE090E00E9484148883C09164203B
:100E4000D091652088E090E00E9494148883998373
:100E5000C0916620D091672086E090E00E949414B3
:100E600088839983C0916820D091692085E090E0C3
:100E70000E9484148883C0916A20D0916B2084E002
:100E800090E00E9484148883C0916C20D0916D20E2
:100E900082E090E00E94941488839983C0916E2030
:100EA000D0916F2080E090E00E9494148883998311
:100EB000DF91CF9108956091572170E0762F6627DA
:100EC00080915621680F711D8DE090E00E94BB1447
:100ED0006091592170E0762F662780915821680F24
:100EE000711D8BE090E00E94BB1460915A218AE052
:100EF00090E00E94981460915C2170E0762F662744
:100F000080915B21680F711D88E090E00E94BB1406
:100F100060915E2170E0762F662780915D21680FD9
:100F2000711D86E090E00E94BB1460915F2185E016
:100F300090E00E9498146091602184E090E00E940B
:100F400098146091622170E0762F6627809161216C
:100F5000680F711D82E090E00E94BB1460916421D3
:100F600070E0762F662780916321680F711D80E005
:100F700090E00C94BB14BC0186E391E211CF809108
:100F8000F120811132C08091B120833419F148F4ED
:100F90008134D9F0823449F561ED70E28CEA92E057
:100FA0001DC0853439F0E0F08634F9F481ED90E22B
:100FB000E2DF1BC080E091E24FDA05DD99DE61EDF2
:100FC00070E28EE091E2ECDE10C061ED70E28CEC3C
:100FD00092E004C061ED70E28CE892E000DF05C0B1
:100FE00061ED70E28CE692E0F9CF8091F1208230E1
:100FF00009F06AC08091B12090E0FC01E854F10949
:10100000EB30F10508F060C0E250FF4F0C94721411
:101010008091B220882309F457C08091B320909129
:10102000B220E0914120F0914220E90FF11D808330
:10103000C4DC4AC08091B320E091B220F0E0EB58CC
:10104000FF4D813019F0873009F08DE080833CC07E
:101050008091B32080937C218091B22080937B216A
:1010600033C080E091E2F8D92FC0E0915320F09195
:10107000542080818061EACFE0915320F091542088
:1010800080818064E3CFE0915320F091542020913F
:10109000B22081E090E0022E01C0880F0A94EAF7A6
:1010A00080959081982390830FC061E001C060E03B
:1010B00085E091E20E94A01107C061E001C060E0FC
:1010C00085E091E20E9407118091F1208F3181F437
:1010D0008091B120873461F466E571E281EB90E2A2
:1010E0006EDEE0915520F0915620808188608083EB
:1010F0000895E0914120F091422087E08083818330
:101100008283838308951092752010927620109226
:101110007720109278200895E0E7F0E081E0818365
:1011200084E082838CE383838CE7848384E18583FA
:10113000089508D98FE891E00197F1F700C0000009
:10114000E0915520F091562080818B7F8083F4D8E8
:101150008BEF90E281C94AE064E180E003DC45E086
:101160006AE081E0FFDB4AE064E182E0FBDB4AE029
:1011700064E183E0F7DB4AE064E184E0F3DB61E013
:1011800080E0FACB64E280E06DDB64E081E06ADB62
:1011900064E082E067DB64E083E064CB85E0809319
:1011A00043008091010480FDFCCF82E390E08093B6
:1011B0000A0490930B0483E08093020481E08093FF
:1011C000000408950F93CF93DF931F92CDB7DEB73E
:1011D0002FB72983F8941BBEFC0108ED04BF608380
:1011E00089818FBF0F90DF91CF910F91089592E089
:1011F000909350008823C1F0EFE3FFE13197F1F7BE
:1012000000C000009091510091FF04C061E080E4B3
:1012100090E0D8CF815071F7E0915320F0915420A5
:1012200080818160808308950895CF93DF931F921A
:101230001F92CDB7DEB78EE291E28093412090936A
:1012400042208EE091E2809343209093442082E1FB
:1012500091E2809345209093462083E191E2809330
:1012600047209093482085E191E280934920909314
:101270004A2087E191E280934B2090934C2089E1B2
:1012800091E280934D2090934E208AE191E28093E9
:101290004F20909350208BE191E2809351209093C6
:1012A000522081E291E2809353209093542082E275
:1012B00091E2809355209093562086E391E28093AB
:1012C0005E2090935F2088E391E28093602090936A
:1012D00061208AE391E280936220909363208BE304
:1012E00091E280936420909365208DE391E2809356
:1012F0006620909367208FE391E28093682090931B
:10130000692080E491E280936A2090936B2081E4CD
:1013100091E280936C2090936D2083E491E280931E
:101320006E2090936F2088EC62DF38DF68DD2ED569
:1013300088E18093730680935406809356068093C9
:10134000700620DF80916006846080936006809143
:10135000600682608093600680914006886080937A
:10136000400680914006806280934006809140064E
:10137000806880934006EFDE80914406846080930D
:101380004406809140068460809340060BD84FEB62
:1013900057E060E874E08DEA90E210D640EC65E535
:1013A0008DEA90E21CD62BE940E860EA74E085E81B
:1013B00090E240D5809180068860809380061092EC
:1013C00007211092062110920821A6DE87E0809363
:1013D000A20078942FEF39EF80E021503040804018
:1013E000E1F700C0000040E465E870E28EE990E2B9
:1013F000C7D8B82E9FEFE9EFF0E09150E040F04001
:10140000E1F700C00000ADECCA2EACECDA2EED2CFA
:10141000ADE3FA2E9701860140E058E160E070E20A
:101420008EE990E2BED88B21282F2170922E80FD6C
:1014300007C0E0915320F091542080818460808324
:1014400058DE0E94AB0175DE68EE73E086E791E23C
:101450000E942502E0916620F091672060817181F1
:1014600080E091E20E94250280E091E204D8E091C0
:101470006C20F0916D206081718180E790E20E9484
:10148000250280E790E20E943B0268EE73E08BEF5A
:1014900090E20E9425028BEF90E20E943B026FEFE8
:1014A0007FE080E890E20E9425026AE087E590E212
:1014B0000E94E80168E089E790E20E94E80168E0A4
:1014C0008DE791E20E94E801812C512C68E0762E94
:1014D00079E0372EE4E04E2EF7E06F2EE0915520B4
:1014E000F0915620808181FF05C08D7F808389E146
:1014F00095E09ED980E0B0D980FF3BC0E0914120CB
:10150000F091422080818730A1F541E061E080E0E8
:1015100043DAE0916220F0916320808181FF03C073
:1015200061E081E060D4E0916220F09163208081ED
:1015300082FF03C061E082E056D4E0916220F09126
:101540006320808183FF03C061E083E04CD4E0919D
:101550006420F09165206081718189E091E20E94B0
:101560002502E0914120F0914220708226DA80E04D
:10157000E9D8E0914120F09142208081883081F4C7
:1015800089E091E20E943302882351F0BCDD61E0E2
:1015900080E029D4E0914120F091422030820DDAA0
:1015A000E0914120F091422080818930F1F4E09176
:1015B0004520F091462080818230B9F440E061E01E
:1015C00080E0EAD9E0914120F091422081E08083DF
:1015D000F4D980E091E20E942C0280E0B3D881E04F
:1015E000B1D882E0AFD883E0ADD81091752080E00B
:1015F00033D980FD04C01D3011F01730D1F4E091D3
:101600004120F09142208081813099F441E061E0F5
:1016100080E0C2D980E091E20E943B02E09141204B
:10162000F091422082E08083C8D980E08BD810926C
:101630007520E0914120F091422080818230A1F418
:10164000E0914520F09146208081813069F460E28C
:101650007EE48CE390E20E942502E0914120F0912B
:10166000422083E08083A9D9E0914120F09142207B
:1016700080818330D9F48CE390E20E943302882386
:10168000A9F060E080E0AFD360E082E0ACD360E03E
:1016900081E0A9D360EA7FE086EF90E20E94250214
:1016A000E0914120F0914220408287D9E091412091
:1016B000F09142208081843009F586EF90E20E940B
:1016C00033028823D9F060E083E08DD3E09141209C
:1016D000F0914220608271D940E060E080E05CD906
:1016E00040E060E082E058D940E060E083E054D917
:1016F00040E060E084E050D9FCDC05DDE091412071
:10170000F09142208081813009F0D2C081818E30F9
:1017100009F43DC01091762081E09ED880FD04C080
:101720001D3011F01130B1F4E0914120F0914220D0
:101730008181873079F441E061E082E02DD9E09148
:101740004120F0914220718238D981E00E94A203A9
:101750001092762081E080D880FD04C01D3011F009
:101760001730B9F4E0914120F0914220818181301D
:1017700081F441E061E082E00FD9E0914120F091F5
:10178000422082E0818319D981E00E94A203109255
:101790007620E0914120F091422082818E3009F440
:1017A0003DC01091772082E057D880FD04C01D30E5
:1017B00011F01130B1F4E0914120F091422082818A
:1017C000873079F441E061E083E0E6D8E0914120A0
:1017D000F09142207282F1D882E00E94A20310921E
:1017E000772082E039D880FD04C01D3011F0173019
:1017F000B9F4E0914120F09142208281813081F45E
:1018000041E061E083E0C8D8E0914120F0914220BE
:1018100082E08283D2D882E00E94A20310927720D5
:10182000E0914120F091422083818E3009F43EC046
:101830001091782083E010D880FD04C01D3011F095
:101840001130B1F4E0914120F09142208381873042
:1018500079F441E061E084E09FD8E0914120F0918B
:1018600042207382AAD883E00E94A20310927820BB
:1018700083E00E942C0480FD04C01D3011F017305D
:10188000B9F4E0914120F09142208381813081F4CC
:1018900041E061E084E080D8E0914120F091422075
:1018A00082E083838AD883E00E94A203109278208A
:1018B000E0914120F091422081818E3021F440E07E
:1018C00060E082E069D8E0914120F091422081817E
:1018D000873021F440E060E082E05ED8E091412072
:1018E000F09142208181813021F440E061E082E08A
:1018F00053D8E0914120F091422082818E3021F432
:1019000040E060E082E048D8E0914120F091422040
:101910008281873021F440E060E083E03DD8E091AF
:101920004120F09142208281813021F440E061E049
:1019300083E032D8E0914120F091422083818E30C3
:1019400021F440E060E082E027D8E0914120F0916E
:1019500042208381873021F440E060E084E01CD89D
:10196000E0914120F09142208381813021F440E0D8
:1019700061E084E011D8E0915520F09156208081FB
:1019800080FF08C08E7F808362E575E08DE295E080
:101990000E943B04E0915520F0915620808182FF07
:1019A00096C00E94A6018C010E94AB01803291F189
:1019B000D8F4883109F088C0A0904720B090482022
:1019C000E0915E20F0915F206081718180E090E085
:1019D000C6D520E030E44CE156E42DD56B017C0106
:1019E000B80187E590E22DC0883221F0883309F4F0
:1019F00042C06AC0A0904520B0904620C8010E9415
:101A0000E904F501808361E070E080E890E20E94E3
:101A100012025AC0A0904920B0904A20E091602064
:101A2000F09161206081718180E090E098D520E0A4
:101A300030E44CE156E4FFD46B017C01B80189E746
:101A400090E20E94F101BC0180E090E088D59B010A
:101A5000AC01C701B60156D620E030E44CE155E4B4
:101A600051D620E030E040E859E34CD64CD5F501A2
:101A70006083718329C0B8018DE791E20E94F10172
:101A800000914B2010914C20BC0180E090E067D584
:101A900020E030E040E250E435D620E030E040E89D
:101AA00059E330D6C0D3F801808391838091062119
:101AB000882351F080E890E20E942C02E0914B20B4
:101AC000F0914C20108211820E94B80132DB80918B
:101AD0007B2181111BC000914D2010914E2096D189
:101AE000F801808300914F201091502085E091E211
:101AF0006FD3F8018083F1E08F1609F453C08F167D
:101B0000A8F122E0821609F464C079C000E010E078
:101B10000F5F1F4F04301105F1F280917B2190E09F
:101B2000002E02C0959587950A94E2F780FFF0CFCA
:101B300080917C2190E0002E02C0959587950A94B3
:101B4000E2F780FF02C061E001C060E0802F4BD16E
:101B500020917B2181E090E0002E01C0880F0A9443
:101B6000EAF78095822380937B21D2CFBE016F5FFD
:101B70007F4F8EE990E20E943B03982E811102C0B4
:101B8000912C3FC08091A120811103C0992493948E
:101B90003FC0E0915120F091522089819A81808349
:101BA00091832DC0BE016F5F7F4F8EE990E20E944E
:101BB0007103982E882321F38091A120882331F38B
:101BC000E0915120F091522089819A818283938300
:101BD00016C0BE016F5F7F4F8EE990E20E947403D2
:101BE000982E882369F28091A120882379F2E091D0
:101BF0005120F091522089819A818483958391109C
:101C000007C0E0915320F09154208081846080834C
:101C1000839433E0381508F4812C80E890E20E9428
:101C20003302882309F450C0E0916E20F0916F20B8
:101C3000808191816AE070E041D680E090E08FD4AD
:101C4000C4D55B016C01E0914720F0914820808170
:101C50009181209174208C3B924040F5222321F009
:101C600080E790E20E942C02E0916A20F0916B20C4
:101C70008081811104C06092752061E022C08130B2
:101C800071F00091492010914A20C601B5013BD462
:101C9000F801208131812617370768F315C080E7E6
:101CA00090E20E9433028111E6CFEBCF211108C0F0
:101CB00080E790E20E942C0280E790E20E943B02C3
:101CC00060E085E091E24FD380E890E20E94330229
:101CD000882309F1E0914B20F0914C208081918183
:101CE0008D3D924850F0E0915320F0915420808136
:101CF00080688083609275200EC0E0916820F0912A
:101D00006920808187FF07C0E0915320F091542023
:101D100080818F77808380E091E20E943302E0919E
:101D20005320F0915420882319F08081806209C0EB
:101D3000A0916820B09169208C9185FF03C08081BB
:101D40008F7D8083E0915320F09154208081851510
:101D500089F00E94DD04E0915320F09154205080DE
:101D6000552019F041E061E002C040E060E081E010
:101D70000E94CC04E0915520F0915620808183FF91
:101D8000ADCB877F808397D83AD8A8CBE0E2F6E046
:101D90008481886084838481846084838481826078
:101DA0008483848181608483808188608083808152
:101DB0008460808380818260808380818160808371
:101DC0000895FC01248181E090E0062E01C0880F77
:101DD0000A94EAF7413021F48095822384830895A0
:101DE000282B24830895462F813041F028F082303B
:101DF00039F0833039F0089563E005C062E003C034
:101E000061E001C060E080E296E0DBCF80912406D3
:101E100083FB882780F991E089279091240692FF1F
:101E200082609091240691FF84609091240690FF37
:101E300088600895FC01608371834863DB0111961B
:101E40004C93A081B18115962C930190F081E02DE7
:101E500081E0848308950F93CF93DF93FC012930B1
:101E600058F5093048F58789811126C081E0878BB4
:101E7000108E660F6283DA018A2F841B821740F46A
:101E8000ED01C41BD50B8D91CE0FDF1F8B83F4CFDB
:101E9000238B048B158A168A8389882319F0828103
:101EA0008E7F05C08489882349F0828181600190FA
:101EB000F081E02D868302C080E001C081E0DF91E7
:101EC000CF910F910895FC01A081B18114968C915E
:101ED000149782FF02C094E001C093E0908F886065
:101EE00014968C93178A0895CF93DF93FC019389FE
:101EF0008489A081B18114962C91149724FF05C088
:101F000083E013968C9385E01AC02589291758F42D
:101F10008589EF01C80FD11D8B8117968C93858918
:101F20008F5F858B0EC09689981728F48281816017
:101F300016968C9306C083E013968C9381E0808F75
:101F4000178ADF91CF910895FC018689A081B18124
:101F5000883060F417968C919689DF01A90FB11D26
:101F60001B968C9386898F5F868B06C083E01396C1
:101F70008C9382E0808F178A84899689A081B181B1
:101F8000981720F482E013968C93089587E01396B7
:101F90008C9381E0808F178A0895DC01ED91FC918C
:101FA0002481322F3C7009F08ECF26FD9DCF27FD76
:101FB000CBCF26E0FC01208F178A0895FC016083B7
:101FC000718342835383EC5BFF4F10823196108202
:101FD0003196108231961082319610820895DC017C
:101FE000ED91FC91119748634087ED91FC91660F4C
:101FF00063870895CF93DF939C01285B3F4FD901FE
:102000004C91DC01ED91FC911197A95BBF4FEC0164
:10201000CA5BDF4F442341F082E0818786E08C93E6
:102020001882F901108211C021E028831C922085BA
:102030002B7F2087FC01EC5BFF4F108231961082D2
:10204000DC01ED91FC9183E08187DF91CF910895D0
:10205000DC01ED91FC91119720852B7F2087ED917C
:10206000FC91228520642287FC01E95BFF4F21E07F
:1020700020833197108208950F931F93CF93DF939E
:10208000EC01E881F9818085846080878E010C5B9A
:102090001F4FF8018081E881F981803228F584851D
:1020A000F8019081FE01E90FF11D8483EA81FB8133
:1020B0001995F80180818F5F8083DE01A85BBF4F97
:1020C0008C91E881F981882361F082E08187FE01AB
:1020D000E95BFF4F86E08083CA5BDF4F18821C926A
:1020E0000DC083E081870AC086E08187FE01E95B3D
:1020F000FF4F82E08083CA5BDF4F1882DF91CF9170
:102100001F910F910895CF93DF93FC01EB5BFF4F7D
:102110002081EC01A881B981222359F01A962C91D3
:102120001A9724FF06C022E019962C93329621E0DC
:1021300019C02081203280F42081EC01C20FD11D12
:102140002CA11C962C9320812F5F2083DC01ED9124
:10215000FC9183E0818709C022E019962C93FC0151
:10216000E95BFF4F208331971082DF91CF91089573
:10217000DC01ED91FC91228521FDC5CF7DCFDC01F5
:10218000ED91FC91228522FF09C0FC01EC5BFF4F21
:10219000108231961082329624E016C023FF09C0C7
:1021A000FC01EC5BFF4F108231961082329623E0E7
:1021B0000BC026FF03C020FD1DCF4ACF27FDD8CF7F
:1021C000FC01E95BFF4F25E02083319710820895E1
:1021D000FC0180916806881F8827881F90916806F7
:1021E00096FD82609091680695FD846090916806E6
:1021F00094FD88609381911101C080649181911157
:1022000001C080619281911101C080620895209186
:102210008406662311F0286001C0277F209384067E
:10222000FC01628308958F929F92AF92BF92CF92EA
:10223000DF92EF92FF92CF93DF936B017C0120E05E
:1022400030E44CE156E45ED24B015C01A7019601FB
:1022500063E373E383E590E489D09B01AC01C5019E
:10226000B401E9D06B017C0120E038EE40E057E496
:1022700049D24B015C01A701960160E078EE80E055
:1022800097E474D09B01AC01C501B401D4D020E027
:1022900030E44CE156E4CFD0F5D14B015C018FE046
:1022A00090E032D3D82F80E190E02ED3C82F6D2F4D
:1022B000772767FD7095872F972F53D120E030E067
:1022C00048EC52E4B8D020E030E048EC52E44FD083
:1022D0006B017C0123E333E145E953E4C501B4011B
:1022E00011D220E030EB46E555E441D09B01AC0132
:1022F00064E179E08AE799E49ED04B015C018C2F80
:102300006AE0CFD2682F772767FD7095872F972FC8
:1023100028D19B01AC01C501B40129D09B01AC01BE
:10232000C701B601EFD1EFD0CB01DF91CF91FF9084
:10233000EF90DF90CF90BF90AF909F908F900895D7
:10234000662349F0209104062F77209304062091FC
:102350000006206803C0209100062F772093000616
:10236000FC0161830895FC01638308955058BB27E5
:10237000AA270ED048C139D130F03ED120F031F437
:102380009F3F11F41EF42EC10EF4E095E7FB24C12B
:10239000E92F4AD180F3BA176207730784079507BC
:1023A00018F071F49EF562C10EF4E0950B2EBA2F71
:1023B000A02D0B01B90190010C01CA01A00111244B
:1023C000FF27591B99F0593F50F4503E68F11A16F7
:1023D000F040A22F232F342F4427585FF3CF469588
:1023E00037952795A795F0405395C9F77EF41F16AA
:1023F000BA0B620B730B840BBAF09150A1F0FF0F74
:10240000BB1F661F771F881FC2F70EC0BA0F621F5F
:10241000731F841F48F4879577956795B795F7954F
:102420009E3F08F0B3CF9395880F08F09927EE0FE1
:102430009795879508950CD0E6C0DED040F0D5D0B2
:1024400030F021F45F3F19F0C7C0511110C1CAC06C
:10245000EBD098F39923C9F35523B1F3951B550B92
:10246000BB27AA2762177307840738F09F5F5F4F67
:10247000220F331F441FAA1FA9F333D00E2E3AF0A8
:10248000E0E830D091505040E695001CCAF729D0C2
:10249000FE2F27D0660F771F881FBB1F2617370711
:1024A0004807AB07B0E809F0BB0B802DBF01FF2741
:1024B00093585F4F2AF09E3F510568F08DC0D7C0FA
:1024C0005F3FECF3983EDCF3869577956795B7957B
:1024D000F7959F5FC9F7880F911D9695879597F996
:1024E0000895E1E0660F771F881FBB1F621773070F
:1024F0008407BA0720F0621B730B840BBA0BEE1F24
:1025000088F7E095089598D088F09F5790F0B92FFC
:102510009927B751A0F0D1F0660F771F881F991F38
:102520001AF0BA95C9F712C0B13081F09FD0B1E06E
:1025300008959CC0672F782F8827B85F39F0B93F7E
:10254000CCF3869577956795B395D9F73EF490953A
:102550008095709561957F4F8F4F9F4F0895E894B8
:1025600009C097FB3EF490958095709561957F4FDB
:102570008F4F9F4F9923A9F0F92F96E9BB27939589
:10258000F695879577956795B795F111F8CFFAF499
:10259000BB0F11F460FF1BC06F5F7F4F8F4F9F4FCA
:1025A00016C0882311F096E911C0772321F09EE828
:1025B000872F762F05C0662371F096E8862F70E08E
:1025C00060E02AF09A95660F771F881FDAF7880F68
:1025D0009695879597F9089597F99F6780E870E039
:1025E00060E008959FEF80EC089500240A94161689
:1025F000170618060906089500240A9412161306F1
:10260000140605060895092E0394000C11F488237E
:1026100052F0BB0F40F4BF2B11F460FF04C06F5F9A
:102620007F4F8F4F9F4F089557FD9058440F551F70
:1026300059F05F3F71F04795880F97FB991F61F044
:102640009F3F79F087950895121613061406551FBB
:10265000F2CF4695F1DF08C0161617061806991F27
:10266000F1CF86957105610508940895E894BB271C
:1026700066277727CB0197F908950EF0C8C0B2CF2F
:102680006894AACFD9DFC8F39923D1F3C6F3DF93B7
:10269000CF931F930F93FF92C92FDD2788232AF032
:1026A0002197660F771F881FDAF720E030E040E8B7
:1026B0005FEB9FE3883920F0803E30F021968F77E2
:1026C00056DEE2E1F2E003C052DEEFE3F2E0ADD02D
:1026D0008B01BE01EC01FB2E6F5771097595771FB9
:1026E000880B990B3EDF28E132E741E35FE316D028
:1026F000AF2D9801AE01FF900F911F91CF91DF9107
:1027000047DE81CF0BD07FCF70DF28F075DF18F068
:10271000952309F061CF66CF1124A9CF85DFA0F3FF
:10272000959FD1F3950F50E0551F629FF001729F66
:10273000BB27F00DB11D639FAA27F00DB11DAA1F85
:10274000649F6627B00DA11D661F829F2227B00DD2
:10275000A11D621F739FB00DA11D621F839FA00D5D
:10276000611D221F749F3327A00D611D231F849FAD
:10277000600D211D822F762F6A2F11249F57504004
:102780008AF0E1F088234AF0EE0FFF1FBB1F661F9F
:10279000771F881F91505040A9F79E3F510570F058
:1027A0001BCF65CF5F3FECF3983EDCF386957795C2
:1027B0006795B795F795E7959F5FC1F7FE2B880F53
:1027C000911D9695879597F9089554D020F09F37DD
:1027D00008F44DCF01C01BC0882371F4772321F08A
:1027E0009850872B762F07C0662311F499270DC0C8
:1027F0009051862B70E060E02AF09A95660F771F63
:10280000881FDAF7880F9695879597F908959F3F67
:1028100031F0915020F4879577956795B795880F9B
:10282000911D9695879597F90895DF93CF931F9300
:102830000F93FF92EF92DF927B018C01689405C0A9
:10284000DA2EEF016BDFFE01E894A5912591359119
:1028500045915591AEF3EF019BDDFE019701A80173
:10286000DA9479F7DF90EF90FF900F911F91CF915D
:10287000DF910895E1DEA0F0BEE7B91788F4BB2729
:102880009F3860F41616B11D672F782F8827985F40
:10289000F7CF869577956795B11D93959639C8F3CF
:1028A000089587FB082E062687FD819567FD6195B3
:1028B0001FD00EF4919507FC81950895AA1BBB1BB0
:1028C00051E107C0AA1FBB1FA617B70710F0A61B30
:1028D000B70B881F991F5A95A9F780959095BC0151
:1028E000CD010895EE0FFF1F0590F491E02D19948E
:1028F000991B79E004C0991F961708F0961B881F52
:102900007A95C9F78095089503D080819927089515
:10291000E0ECF1E0378537FDFDCF34853860348752
:10292000FC01E050F04F0895F3DF8081918108951C
:10293000262FE0ECF1E0378537FDFDCF3485377F7A
:102940003487378531FF09C036E3328738ED34BF2D
:1029500031E03387378537FDFDCF33E3328780831E
:1029600091831282248325E3228728ED31E024BF5E
:10297000338701960895DCDF272FDBCFF894FFCF54
:10298000AB06AB06AB06AB06AB06AB06AB06AB06BF
:0429900028182038AB
:00000001FF
