:1000000069C100008CC100008AC1000088C10000E5
:1000100086C1000084C1000082C1000080C10000D0
:100020007EC100007CC100006DC5000078C10000E9
:1000300000C6000074C1000072C1000070C1000061
:100040006EC100006CC100006AC1000068C1000000
:1000500066C1000064C1000062C1000060C1000010
:100060005EC100005CC100005AC1000058C1000020
:1000700056C1000054C1000052C1000050C1000030
:100080004EC100004CC100004AC1000048C1000040
:1000900046C1000044C1000042C1000040C1000050
:1000A0003EC100003CC100003AC1000038C1000060
:1000B00036C1000034C10000F1C5000030C10000AD
:1000C0002EC100002CC100002AC1000028C1000080
:1000D00026C1000024C1000022C1000020C1000090
:1000E0001EC100001CC100001AC1000018C10000A0
:1000F00016C1000014C1000012C1000010C10000B0
:100100000EC100000CC100000AC1000008C10000BF
:1001100006C1000004C1000002C1000069C5000062
:10012000FEC00000FCC00000FAC00000F8C00000E3
:10013000F6C00000F4C00000F2C00000F0C00000F3
:10014000EEC00000ECC00000EAC00000E8C0000003
:10015000E6C00000E4C00000E2C00000E0C0000013
:10016000DEC00000DCC00000DAC00000D8C0000023
:10017000D6C00000D4C00000D2C00000D0C0000033
:10018000CEC00000CCC00000CAC00000C8C0000043
:10019000C6C00000C4C00000C2C00000C0C0000053
:1001A000BEC00000BCC00000BAC00000B8C0000063
:1001B000B6C00000B4C00000B2C00000B0C0000073
:1001C000AEC00000ACC00000AAC00000A8C0000083
:1001D000A6C00000A4C00000A2C00000A0C0000093
:1001E0009EC000009CC000009AC0000098C00000A3
:1001F00096C0000094C0000092C00000B407C6077B
:10020000D40710081008100810081008100810086B
:10021000DD071008E107EF07E807100810081008CD
:10022000100810081008100810081008100810080E
:10023000100810080108030809080B08080000004E
:10024000BE922449123EABAAAA2ABECDCCCC4C3ECB
:1002500000000080BEABAAAAAA3E00000000BF00BA
:100260000000803F0000000000084178D3BB4387B6
:10027000D1133D190E3CC3BD4282AD2B3E68EC82CA
:1002800076BED98FE1A93E4C80EFFFBE01C4FF7F4F
:100290003F0000000000284275696C643A20466502
:1002A0006220323420323031392031353A35303A1B
:1002B000313329000048573A2050692D506F776537
:1002C000726D616E2E302E3820000000000000009C
:1002D0000000000011241FBECFEFCDBFDFE3DEBF63
:1002E00000E00CBF18BE19BE1ABE1BBE10E2A0E093
:1002F000B0E2E2EFF8E200E00BBF02C007900D921F
:10030000A431B107D9F71BBE21E2A4E1B0E201C0DC
:100310001D92A737B207E1F734D70C94771470CE4B
:10032000E0E0F2E080A1806880A30895E0E0F2E0E0
:1003300081A30895E0E0F2E084A195A10895809161
:100340001420843010F010921420E0911420F0E07A
:10035000E05FFF4D80810895809114208F5F84308D
:1003600018F48093142002C010921420E0911420FD
:10037000F0E0E05FFF4D8081089592E09093CA0124
:10038000E82FF0E084911092CA010895CF93DF9393
:10039000C0E0D2E080E28A83F0DF8C8781E2EDDF8B
:1003A0008D87198287E08C8381E0888388A383E02E
:1003B0008AA3DF91CF910895613118F4FC01608325
:1003C000089520E1FC0120830895FC01CB012181E7
:1003D00032814381548165817681421B530B6109CF
:1003E0007109480F591F611D711D43835483658333
:1003F0007683DB01CA01008004C0B695A795979566
:1004000087950A94D2F7818392830895FC018481B1
:1004100081110EC0828193816817790738F4828137
:100420009381861B970B8283938308951282138294
:100430000895FC016083718362837383148208953D
:10044000FC01808191818283938314820895FC0151
:100450002281338181E0232B09F080E0089521E09F
:10046000FC0124830895EF92FF920F93CF93DF93C3
:1004700000D0CDB7DEB77C0169835A834B8300E09F
:1004800023E0AE014F5F5F4FDC0112966C91129733
:100490008D919C910E94E40E24E630E0D701ED910D
:1004A000FC919789992361F02115310559F021506C
:1004B0003109EFE1F3E03197F1F700C00000EECF32
:1004C000232B09F480E02396CDBFDEBFDF91CF91CF
:1004D0000F91FF90EF900895CF92DF92EF92FF92ED
:1004E0000F93CF93DF931F92CDB7DEB77C01698363
:1004F0006A0102E021E0AE014F5F5F4FDC0112961E
:100500006C9112978D919C910E94E40E24E630E04C
:10051000D701ED91FC919789992361F0211531055F
:10052000C9F021503109EFE1F3E03197F1F700C054
:100530000000EECF232B71F0238530E0322F2227ED
:10054000D6012D933C9311979485290F311D2D933E
:100550003C9301C080E00F90DF91CF910F91FF900D
:10056000EF90DF90CF900895CF93DF93EC016883F5
:1005700079834F7040644A8340E050E860E073DF65
:100580001B821C82DF91CF9108954F925F926F92F0
:100590007F928F929F92AF92BF92CF92DF92EF9213
:1005A000FF920F931F93CF93DF93EC015B014A01FE
:1005B000280139012FE632E143E85AE3C301B201D1
:1005C0000E943B13A70196010E943B139B01AC01C3
:1005D0006CEA75EC87E29DE30E94D4110E949E13A1
:1005E0000E943C126B017C016D837E834F82588692
:1005F00069867A8620E030E040EA51E4C301B20126
:100600000E943B1320E030E04AE754E40E94D411FA
:100610006B877C878D879E87A60165E0CE0123DFEF
:10062000F82EA4014F6951604A295B2960E0CE0190
:100630001ADF811102C08F2D01C081E0DF91CF91BF
:100640001F910F91FF90EF90DF90CF90BF90AF90F0
:100650009F908F907F906F905F904F900895EF9252
:10066000FF920F931F93CF93DF931F921F92CDB7EB
:10067000DEB78C017B01AE014F5F5F4F62E02CDF84
:1006800029813A8120FF04C091E0F801948302C0DF
:10069000F801148221FF04C091E0F801938302C0A5
:1006A000F8011382882341F0F8019381992321F006
:1006B000287FF701208331830F900F90DF91CF9136
:1006C0001F910F91FF90EF900895AB0161E004CF6F
:1006D000FF920F931F93CF93DF93EC018B014D811A
:1006E0005E8165E0C0DEF82EA80164E0CE01F4DE94
:1006F0008F21DF91CF911F910F91FF900895FF926D
:100700000F931F93CF93DF93EC018B014D815E819B
:1007100065E0A9DEF82EA80163E0CE01DDDE8F21C1
:10072000DF91CF911F910F91FF900895FB0120E081
:1007300030E090E06081660FAC01022E02C055955A
:1007400047950A94E2F740FD616060832F5F3F4F59
:1007500031962430310571F70895E82FF0E0E55E19
:10076000FF4D80818C7F808308958F929F92AF92FE
:10077000BF92CF92DF92EF92FF920F931F93CF938E
:10078000DF93142F69017B015C01EA018AE0982E56
:10079000882483948C2F811B801708F047C0F701B1
:1007A000208122FF07C0F50190819370933039F0CA
:1007B00091111DC0D2DF1882F601108218C0888105
:1007C000811112C02160F7012083F60180818F3FE3
:1007D00011F08F5F80839882F6018081843090F4DD
:1007E000F60180818D30A0F48881811118C0219696
:1007F000FFEFCF1ADF0A8FEFE81AF80AEFEFAE1A11
:10080000BE0AC8CFF701808184FFEACF8882E8CF93
:10081000F701808185FFE8CF82608083E5CFF70113
:10082000908193FFE4CF81508883E1CFDF91CF9116
:100830001F910F91FF90EF90DF90CF90BF90AF90FE
:100840009F908F9008950F93FC01199580931A2023
:1008500066E170E26BDF04E023E230E24FE150E258
:100860006BE170E286E190E280DF0F910895E82F5E
:10087000F0E0E55EFF4D80810895E82FF0E0E55E51
:10088000FF4D6C7F8081862B808308958F929F928D
:10089000AF92BF92CF92DF92EF92FF920F931F938E
:1008A000CF93DF936C015B0182E3882E80E2982E68
:1008B00097E3E92E90E2F92E0DE210E2C0E0D0E0DD
:1008C0008C2FF40121914F0120FF1EC021FF19C080
:1008D000F80190819F5F9083FE01E85DFF4D3081BC
:1008E000931710F0F8011082F8019081F70122FFB0
:1008F00004C02081921748F405C02081291728F4EC
:1009000001C08C2FF60102C08C2FF501199521969C
:10091000FFEFEF1AFF0A0F5F1F4FC530D10581F6B9
:10092000DF91CF911F910F91FF90EF90DF90CF90CB
:10093000BF90AF909F908F900895E82FF0E0DF0177
:10094000A35DBF4D1C92EE5CFF4D8081662311F0CC
:10095000816001C08E7F80830895E82FF0E0DF0181
:10096000A35DBF4D1C92EE5CFF4D8081662311F0AC
:10097000826001C08D7F8083089590E0FC01E85D76
:10098000FF4D6083FC01E95CFF4D40830895E82F33
:10099000F0E0DF01A35DBF4D1C92EE5CFF4D808156
:1009A000662311F0846001C08B7F808308951F93BC
:1009B000CF93DF931F92CDB7DEB7182F4983BDDFEA
:1009C0004981642F812F0F90DF91CF911F91C5CF67
:1009D000E0E4F6E084818B7F84830895E0E4F6E030
:1009E000848184608483089520911520E22FF0E0B3
:1009F000EE0FFF1FE050F04E808391832F5F283071
:100A000018F42093152002C010921520E0E0F0E2C7
:100A100080E090E021913191820F931F20E2E0313C
:100A2000F207C1F79C0183E0369527958A95E1F797
:100A300029308BE0380730F481E02733354018F453
:100A400080E0089582E008958091680683FB8827FE
:100A500080F991E089279091480694FF82609091F7
:100A6000480696FF84609091680690FF886008951C
:100A70008230A9F028F4882361F0813031F00895A4
:100A8000833089F0843099F0089580916406826003
:100A900003C0809164068460809364060895809109
:100AA0004406886007C080914406806203C080913C
:100AB000440680688093440608958230A9F028F4A3
:100AC000882361F0813031F00895833089F08430DB
:100AD00099F00895809164068D7F03C0809164062B
:100AE0008B7F80936406089580914406877F07C0BA
:100AF000809144068F7D03C0809144068F77809358
:100B0000440608951F920F920FB60F92112408B653
:100B10000F9218BE09B60F9219BE0BB60F921BBEEC
:100B20002F933F934F935F936F937F938F939F93F5
:100B3000AF93BF93EF93FF93E0915320F091542034
:100B4000808181608083E0915320F09154208081E6
:100B50008260808362E370E084EF90E257DC62E3BE
:100B600070E08CE390E252DC62E370E089EF90E2A7
:100B70004DDC62E370E089E691E248DC89EF90E2C7
:100B800066DC882339F0E0915120F0915220808179
:100B90008860808389E691E25ADC882391F089E6B7
:100BA00091E24EDC61E070E08EEF90E22FDC61E0DC
:100BB00070E08EE690E22ADC61E070E087E091E28E
:100BC00025DCFF91EF91BF91AF919F918F917F9124
:100BD0006F915F914F913F912F910F900BBE0F90AE
:100BE00009BE0F9008BE0F900FBE0F901F90189572
:100BF0001F920F920FB60F92112408B60F9218BED3
:100C00000BB60F921BBE8F93EF93FF93E09153208F
:100C1000F0915420808184608083FF91EF918F91C7
:100C20000F900BBE0F9008BE0F900FBE0F901F903D
:100C300018951F920F920FB60F92112408B60F92BB
:100C400018BE09B60F9219BE0BB60F921BBE2F939A
:100C50003F934F935F936F937F938F939F93AF9344
:100C6000BF93EF93FF938BEA90E20E947810FF917D
:100C7000EF91BF91AF919F918F917F916F915F9114
:100C80004F913F912F910F900BBE0F9009BE0F9087
:100C900008BE0F900FBE0F901F9018951F920F92D5
:100CA0000FB60F92112408B60F9218BE09B60F9214
:100CB00019BE0BB60F921BBE2F933F934F935F93BA
:100CC0006F937F938F939F93AF93BF93EF93FF9314
:100CD00083E890E20E94860FFF91EF91BF91AF9160
:100CE0009F918F917F916F915F914F913F912F9144
:100CF0000F900BBE0F9009BE0F9008BE0F900FBE55
:100D00000F901F901895DB012C9121E030E0FB0142
:100D1000E20FF31FDC014D91CD0140832F5F3F4F68
:100D200020323105A1F70895FC012081FB0121E06B
:100D300030E0DC01A20FB31F4C9141932F5F3F4F76
:100D400020323105B1F70895DB011196FB012081B6
:100D500020E030E0AD014F5F5F4FFC01E20FF31F79
:100D6000E491EC932F5F3F4F2F31310511F0DA0101
:100D7000F1CF0895CF93DF93C0915C20D0915D2097
:100D80008DE090E00E944D1488839983C0915E208D
:100D9000D0915F208BE090E00E944D14888399836E
:100DA000C0916020D09161208AE090E00E943D14C3
:100DB0008883C0916220D091632088E090E00E94F7
:100DC0004D1488839983C0916420D091652086E07A
:100DD00090E00E944D1488839983C0916620D09141
:100DE000672085E090E00E943D148883C0916820D0
:100DF000D091692084E090E00E943D148883C091E6
:100E00006A20D0916B2082E090E00E944D1488838C
:100E10009983C0916C20D0916D2080E090E00E9479
:100E20004D1488839983DF91CF91089560914B2170
:100E300070E0762F662780914A21680F711D8DE042
:100E400090E00E94741460914D2170E0762F662727
:100E500080914C21680F711D8BE090E00E9474140A
:100E600060914E218AE090E00E94511460915021DF
:100E700070E0762F662780914F21680F711D88E002
:100E800090E00E9474146091522170E0762F6627E2
:100E900080915121680F711D86E090E00E947414CA
:100EA0006091532185E090E00E945114609154219B
:100EB00084E090E00E9451146091562170E0762FFA
:100EC000662780915521680F711D82E090E00E9495
:100ED00074146091582170E0762F66278091572115
:100EE000680F711D80E090E00C947414BC018BE2DB
:100EF00091E209CF8091EF20811123C08091AF2032
:100F00008136A9F060F48935E1F48EEF90E298DA49
:100F100065DD6FEC70E28CE091E2F5DE12C08236A6
:100F200059F0873671F48FEC90E2E0DF0AC06FEC85
:100F300070E285EB92E004C06FEC70E286E992E02B
:100F400003DF8091EF20823009F06AC08091AF20EA
:100F500090E0FC01E754F109E032F10508F060C0CF
:100F6000E250FF4F0C942B148091B020882309F499
:100F700057C08091B1209091B020E0914120F09134
:100F80004220E90FF11D808323DD4AC08091B1200A
:100F9000E091B020F0E0ED58FF4D813019F087303E
:100FA00009F08DE080833CC08091B12080936F2157
:100FB0008091B02080936E2133C08EEF90E240DAB2
:100FC0002FC0E0915120F091522080818061EACFC2
:100FD000E0915120F091522080818064E3CFE09134
:100FE0005120F09152202091B02081E090E0022E1B
:100FF00001C0880F0A94EAF7809590819823908326
:101000000FC061E001C060E083E091E20E945911ED
:1010100007C061E001C060E083E091E20E94C0107F
:101020008091EF208F3181F48091AF20823561F47F
:101030006AE471E28FEA90E277DEE0915320F0916A
:1010400054208081886080830895E0914120F09150
:10105000422087E080838183828383830895109276
:1010600073201092742010927520109276200895AB
:10107000E0E7F0E081E0818384E082838CE3838396
:101080008CE7848384E18583089550D98FE891E0CB
:101090000197F1F700C00000E0915320F091542037
:1010A00080818B7F80833CD989EF90E2C9C94AE077
:1010B00064E180E062DC45E06AE081E05EDC4AE019
:1010C00064E182E05ADC4AE064E183E056DC4AE015
:1010D00064E184E052DC61E080E059CC64E280E0CD
:1010E000CCDB64E081E0C9DB64E082E0C6DB64E085
:1010F00083E0C3CB85E0809343008091010480FDB1
:10110000FCCF82E390E080930A0490930B0483E089
:101110008093020481E08093000408950F93CF939D
:10112000DF931F92CDB7DEB72FB72983F8941BBE8C
:10113000FC0108ED04BF608389818FBF0F90DF91B0
:10114000CF910F91089592E0909350008823C1F0C1
:10115000EFE3FFE13197F1F700C0000090915100FB
:1011600091FF04C061E080E490E0D8CF815071F736
:10117000E0915120F0915220808181608083089518
:101180000895CF93DF931F921F92CDB7DEB78CE007
:1011900091E2809341209093422084E191E28093F8
:1011A00043209093442085E191E2809345209093E1
:1011B000462087E191E2809347209093482089E17F
:1011C00091E28093492090934A208BE191E28093B1
:1011D0004B2090934C208CE191E280934D20909392
:1011E0004E208DE191E280934F209093502085E234
:1011F00091E2809351209093522086E291E2809375
:101200005320909354208BE291E280935C20909342
:101210005D208DE291E280935E2090935F208FE2CB
:1012200091E2809360209093612080E391E280932B
:1012300062209093632082E391E2809364209093F4
:10124000652084E391E2809366209093672085E394
:1012500091E2809368209093692086E391E28093E5
:101260006A2090936B2088E391E280936C209093A6
:101270006D2088EC68DF3EDF7DDD41D588E180931D
:10128000730680935406809356068093700626DF7B
:101290008091600684608093600680916006826021
:1012A000809360068091400688608093400680911C
:1012B000400680628093400680914006806880935B
:1012C0004006F5DE80914406846080934406809158
:1012D000400684608093400659D84AE757E060E8AA
:1012E00074E08BEA90E223D640EC65E58BEA90E26D
:1012F0002FD688E58093CF202BE940E860EA74E0A0
:1013000083E890E250D580918006886080938006C3
:10131000109205211092042110920621A9DE87E087
:101320008093A20078942FEF39EF80E02150304075
:101330008040E1F700C0000040E463E870E28CE91F
:1013400090E212D9B82E9FEFE9EFF0E09150E04023
:10135000F040E1F700C00000ADECCA2EACECDA2E94
:10136000ED2CADE3FA2E9701860140E058E160E0F4
:1013700070E28CE990E209D98B21282F2170922EFE
:1013800080FD07C0E0915120F0915220808184605F
:1013900080835BDE0E949F0178DE68EE73E089E661
:1013A00091E247D8E0916420F091652060817181DD
:1013B0008EEF90E23ED88EEF90E251D8E0916A2015
:1013C000F0916B20608171818EE690E232D88EE6DA
:1013D00090E245D868EE73E089EF90E22AD889EF71
:1013E00090E23DD86FEF7FE08EE790E222D86AE08E
:1013F00085E590E20E94DC0168E087E790E20E94C8
:10140000DC0168E080E791E20E94DC01812C512C34
:1014100068E0762E79E0372EE4E04E2EF7E06F2E6E
:10142000E0915320F0915420808181FF05C08D7F91
:10143000808384E295E007DA80E019DA80FF3BC020
:10144000E0914120F091422080818730A1F541E078
:1014500061E080E0ACDAE0916020F0916120808171
:1014600081FF03C061E081E077D4E0916020F091DA
:101470006120808182FF03C061E082E06DD4E09151
:101480006020F0916120808183FF03C061E083E0F0
:1014900063D4E0916220F09163206081718187E0E4
:1014A00091E20E941902E0914120F0914220708265
:1014B0008FDA80E052D9E0914120F0914220808182
:1014C000883081F487E091E20E942702882351F05E
:1014D000C6DD61E080E040D4E0914120F0914220FF
:1014E000308276DAE0914120F0914220808189308B
:1014F000F1F4E0914320F091442080818230B9F4EE
:1015000040E061E080E053DAE0914120F091422038
:1015100081E080835DDA8EEF90E20E94200280E01D
:101520001CD981E01AD982E018D983E016D910912C
:10153000732080E09CD980FD04C01D3011F017306D
:10154000D1F4E0914120F09142208081813099F4E2
:1015500041E061E080E02BDA8EEF90E20E942F0202
:10156000E0914120F091422082E0808331DA80E0F6
:10157000F4D810927320E0914120F09142208081B4
:101580008230A1F4E0914320F091442080818130A9
:1015900069F460E27EE48CE390E20E941902E0913B
:1015A0004120F091422083E0808312DAE0914120D3
:1015B000F091422080818330D9F48CE390E20E9444
:1015C00027028823A9F060E080E0C6D360E082E0D3
:1015D000C3D360E081E0C0D360EA7FE084EF90E2B3
:1015E0000E941902E0914120F09142204082F0D9FE
:1015F000E0914120F09142208081843009F584EF10
:1016000090E20E9427028823D9F060E083E0A4D30F
:10161000E0914120F09142206082DAD940E060E020
:1016200080E0C5D940E060E082E0C1D940E060E000
:1016300083E0BDD940E060E084E0B9D906DD0FDD8C
:10164000E0914120F09142208081813009F0CDC0AD
:1016500081818E3009F43BC01091742081E007D95C
:1016600080FD04C01D3011F01130A9F4E09141203B
:10167000F09142208181873071F441E061E082E0A5
:1016800096D9E0914120F09142207182A1D981E068
:1016900064D81092742081E0EAD880FD04C01D3027
:1016A00011F01730B1F4E0914120F0914220818196
:1016B000813079F441E061E082E079D9E091412024
:1016C000F091422082E0818383D981E046D8109254
:1016D0007420E0914120F091422082818E3009F403
:1016E0003BC01091752082E0C2D880FD04C01D303F
:1016F00011F01130A9F4E0914120F0914220828153
:10170000873071F441E061E083E051D9E0914120FC
:10171000F091422072825CD982E01FD8109275202D
:1017200082E0A5D880FD04C01D3011F01730B1F45F
:10173000E0914120F09142208281813079F441E0B2
:1017400061E083E034D9E0914120F091422082E0D1
:1017500082833ED982E001D810927520E091412029
:10176000F091422083818E3009F43DC010917620A3
:1017700083E07DD880FD04C01D3011F01130B1F43C
:10178000E0914120F09142208381873079F441E05B
:1017900061E084E00CD9E0914120F0914220738215
:1017A00017D983E00E94AD031092762083E05FD8C2
:1017B00080FD04C01D3011F01730B9F4E0914120D4
:1017C000F09142208381813081F441E061E084E046
:1017D000EED8E0914120F091422082E08383F8D856
:1017E00083E00E94AD0310927620E0914120F091B9
:1017F000422081818E3021F440E060E082E0D7D841
:10180000E0914120F09142208181873021F440E035
:1018100060E082E0CCD8E0914120F09142208181CB
:10182000813021F440E061E082E0C1D8E0914120C4
:10183000F091422082818E3021F440E060E082E02D
:10184000B6D8E0914120F09142208281873021F486
:1018500040E060E083E0ABD8E0914120F09142208D
:101860008281813021F440E061E083E0A0D8E09102
:101870004120F091422083818E3021F440E060E0ED
:1018800082E095D8E0914120F09142208381873019
:1018900021F440E060E084E08AD8E0914120F091BA
:1018A00042208381813021F440E061E084E07FD8F0
:1018B000E0915320F0915420808180FF08C08E7FFA
:1018C00080836DE575E088E395E00E944604E09131
:1018D0005320F0915420808182FF95C00E949A018C
:1018E0008C010E949F01803289F1D8F4883109F07F
:1018F00087C0A0904520B0904620E0915C20F091F8
:101900005D206081718180E090E0E2D520E030E4EC
:101910004CE156E449D56B017C01B80185E590E2C4
:101920002CC0883221F0883309F441C069C0A090EE
:101930004320B0904420C80157D8F501808361E06E
:1019400070E08EE790E20E9406025AC0A090472005
:10195000B0904820E0915E20F0915F20608171811D
:1019600080E090E0B5D520E030E44CE156E41CD5B1
:101970006B017C01B80187E790E20E94E501BC01A0
:1019800080E090E0A5D59B01AC01C701B60173D6FC
:1019900020E030E44CE155E46ED620E030E040E851
:1019A00059E369D669D5F5016083718329C0B8010F
:1019B00080E791E20E94E5010091492010914A20C0
:1019C000BC0180E090E084D520E030E040E250E4CB
:1019D00052D620E030E040E859E34DD6DDD3F8019F
:1019E0008083918380910421882351F08EE790E2D7
:1019F0000E942002E0914920F0914A201082118239
:101A00000E94AC0142DB80916E2181111FC00091C8
:101A10004B2010914C20B3D1F801808300914D20D0
:101A200010914E2083E091E28CD3F8018083F1E0A5
:101A30008F1609F457C08F16C8F122E0821609F4F8
:101A400068C033E0831609F47BC092C000E010E068
:101A50000F5F1F4F04301105D1F280916E2190E08D
:101A6000002E02C0959587950A94E2F780FFF0CF8B
:101A700080916F2190E0002E02C0959587950A9481
:101A8000E2F780FF02C061E001C060E0802F64D116
:101A900020916E2181E090E0002E01C0880F0A9411
:101AA000EAF78095822380936E21D2CFBE016F5FCB
:101AB0007F4F8CE990E20E942F03982E811102C083
:101AC000912C58C080919F20811103C09924939438
:101AD00058C0E0914F20F091502089819A818083F5
:101AE000918346C0BE016F5F7F4F8CE990E20E94F8
:101AF0006503982E882321F380919F20882331F35A
:101B0000E0914F20F091502089819A8182839383C4
:101B10002FC0BE016F5F7F4F8CE990E20E94680387
:101B2000982E882369F280919F20882379F2E09192
:101B30004F20F091502089819A818483958318C029
:101B4000BE016F5F7F4F8CE990E20E947F03982E69
:101B5000882309F4B5CF80919F20882309F4B6CF5C
:101B6000E0914F20F091502089819A81868397835C
:101B7000911007C0E0915120F09152208081846043
:101B80008083839484E0881508F4812C8EE790E2AA
:101B90000E942702882309F450C0E0916C20F09144
:101BA0006D20808191816AE070E041D680E090E014
:101BB0008FD4C4D55B016C01E0914520F0914620A3
:101BC00080819181209172208C3B924040F52223AC
:101BD00021F08EE690E20E942002E0916820F091D0
:101BE00069208081811104C06092732061E022C06D
:101BF000813071F00091472010914820C601B50155
:101C00003BD4F801208131812617370768F315C0CE
:101C10008EE690E20E9427028111E6CFEBCF2111E0
:101C200008C08EE690E20E9420028EE690E20E94BA
:101C30002F0260E083E091E24FD38EE790E20E94B2
:101C40002702882309F1E0914920F0914A20808100
:101C500091818D3D924850F0E0915120F0915220B9
:101C6000808180688083609273200EC0E09166203E
:101C7000F0916720808187FF07C0E0915120F091AB
:101C8000522080818F7780838EEF90E20E9427021E
:101C9000E0915120F0915220882319F080818062D8
:101CA00009C0A0916620B09167208C9185FF03C088
:101CB00080818F7D8083E0915120F091522080813E
:101CC000851589F00E94E804E0915120F09152209E
:101CD0005080552019F041E061E002C040E060E032
:101CE00081E00E94D704E0915320F091542080813C
:101CF00083FF96CB877F808399D83CD891CBE0E255
:101D0000F6E0848188608483848184608483848114
:101D10008260848384818160848380818860808301
:101D20008081846080838081826080838081816003
:101D300080830895FC01248181E090E0062E01C09B
:101D4000880F0A94EAF7413021F480958223848336
:101D50000895282B24830895462F813041F028F0E0
:101D6000823039F0833039F0089563E005C062E0D5
:101D700003C061E001C060E080E296E0DBCF8091CB
:101D8000240683FB882780F991E089279091240617
:101D900092FF82609091240691FF846090912406C6
:101DA00090FF88600895FC01608371834863DB01C4
:101DB00011964C93A081B18115962C930190F081DE
:101DC000E02D81E0848308950F93CF93DF93FC018E
:101DD000293058F5093048F58789811126C081E0FE
:101DE000878B108E660F6283DA018A2F841B82171D
:101DF00040F4ED01C41BD50B8D91CE0FDF1F8B83FB
:101E0000F4CF238B048B158A168A8389882319F0D3
:101E100082818E7F05C08489882349F08281816018
:101E20000190F081E02D868302C080E001C081E056
:101E3000DF91CF910F910895FC01A081B18114969B
:101E40008C91149782FF02C094E001C093E0908FC0
:101E5000886014968C93178A0895CF93DF93FC01C2
:101E600093898489A081B18114962C91149724FFC1
:101E700005C083E013968C9385E01AC02589291745
:101E800058F48589EF01C80FD11D8B8117968C936B
:101E900085898F5F858B0EC09689981728F482817B
:101EA000816016968C9306C083E013968C9381E034
:101EB000808F178ADF91CF910895FC018689A081D8
:101EC000B181883060F417968C919689DF01A90F53
:101ED000B11D1B968C9386898F5F868B06C083E02D
:101EE00013968C9382E0808F178A84899689A081CB
:101EF000B181981720F482E013968C93089587E0BF
:101F000013968C9381E0808F178A0895DC01ED9100
:101F1000FC912481322F3C7009F08ECF26FD9DCF9D
:101F200027FDCBCF26E0FC01208F178A0895FC0106
:101F30006083718342835383EC5BFF4F1082319641
:101F40001082319610823196108231961082089557
:101F5000DC01ED91FC91119748634087ED91FC9174
:101F6000660F63870895CF93DF939C01285B3F4FF3
:101F7000D9014C91DC01ED91FC911197A95BBF4F08
:101F8000EC01CA5BDF4F442341F082E0818786E0A9
:101F90008C931882F901108211C021E028831C92D1
:101FA00020852B7F2087FC01EC5BFF4F1082319650
:101FB0001082DC01ED91FC9183E08187DF91CF916C
:101FC0000895DC01ED91FC91119720852B7F2087EE
:101FD000ED91FC91228520642287FC01E95BFF4F93
:101FE00021E020833197108208950F931F93CF93A0
:101FF000DF93EC01E881F9818085846080878E0120
:102000000C5B1F4FF8018081E881F981803228F54F
:102010008485F8019081FE01E90FF11D8483EA8136
:10202000FB811995F80180818F5F8083DE01A85BB9
:10203000BF4F8C91E881F981882361F082E081872C
:10204000FE01E95BFF4F86E08083CA5BDF4F1882A9
:102050001C920DC083E081870AC086E08187FE0163
:10206000E95BFF4F82E08083CA5BDF4F1882DF911C
:10207000CF911F910F910895CF93DF93FC01EB5BFC
:10208000FF4F2081EC01A881B981222359F01A96D3
:102090002C911A9724FF06C022E019962C933296B1
:1020A00021E019C02081203280F42081EC01C20F90
:1020B000D11D2CA11C962C9320812F5F2083DC0145
:1020C000ED91FC9183E0818709C022E019962C9361
:1020D000FC01E95BFF4F208331971082DF91CF91A4
:1020E0000895DC01ED91FC91228521FDC5CF7DCFC6
:1020F000DC01ED91FC91228522FF09C0FC01EC5B23
:10210000FF4F108231961082329624E016C023FFD2
:1021100009C0FC01EC5BFF4F1082319610823296B1
:1021200023E00BC026FF03C020FD1DCF4ACF27FDB3
:10213000D8CFFC01E95BFF4F25E020833197108267
:102140000895FC0180916806881F8827881F909158
:10215000680696FD82609091680695FD8460909176
:10216000680694FD88609381911101C0806491811B
:10217000911101C080619281911101C08062089526
:1021800020918406662311F0286001C0277F2093E8
:102190008406FC01628308958F929F92AF92BF9252
:1021A000CF92DF92EF92FF92CF93DF936B017C018E
:1021B00020E030E44CE156E45ED24B015C01A70123
:1021C000960163E373E383E590E489D09B01AC015E
:1021D000C501B401E9D06B017C0120E038EE40E09C
:1021E00057E449D24B015C01A701960160E078EE0B
:1021F00080E097E474D09B01AC01C501B401D4D058
:1022000020E030E44CE156E4CFD0F5D14B015C0145
:102210008FE090E032D3D82F80E190E02ED3C82F0A
:102220006D2F772767FD7095872F972F53D120E06B
:1022300030E048EC52E4B8D020E030E048EC52E422
:102240004FD06B017C0123E333E145E953E4C50141
:10225000B40111D220E030EB46E555E441D09B01BA
:10226000AC0164E179E08AE799E49ED04B015C011E
:102270008C2F6AE0CFD2682F772767FD7095872F64
:10228000972F28D19B01AC01C501B40129D09B0136
:10229000AC01C701B601EFD1EFD0CB01DF91CF91F7
:1022A000FF90EF90DF90CF90BF90AF909F908F9076
:1022B000089520910006662349F0206820930006C7
:1022C000209104062F772093040603C02F772093D4
:1022D0000006FC0161830895FC0163830895505852
:1022E000BB27AA270ED048C139D130F03ED120F00B
:1022F00031F49F3F11F41EF42EC10EF4E095E7FB7C
:1023000024C1E92F4AD180F3BA1762077307840703
:10231000950718F071F49EF562C10EF4E0950B2E4E
:10232000BA2FA02D0B01B90190010C01CA01A00127
:102330001124FF27591B99F0593F50F4503E68F182
:102340001A16F040A22F232F342F4427585FF3CFC3
:10235000469537952795A795F0405395C9F77EF494
:102360001F16BA0B620B730B840BBAF09150A1F0DD
:10237000FF0FBB1F661F771F881FC2F70EC0BA0F63
:10238000621F731F841F48F4879577956795B795EB
:10239000F7959E3F08F0B3CF9395880F08F09927E3
:1023A000EE0F9795879508950CD0E6C0DED040F0EB
:1023B000D5D030F021F45F3F19F0C7C0511110C1E2
:1023C000CAC0EBD098F39923C9F35523B1F3951BF9
:1023D000550BBB27AA2762177307840738F09F5F46
:1023E0005F4F220F331F441FAA1FA9F333D00E2EB5
:1023F0003AF0E0E830D091505040E695001CCAF722
:1024000029D0FE2F27D0660F771F881FBB1F2617E6
:1024100037074807AB07B0E809F0BB0B802DBF01B9
:10242000FF2793585F4F2AF09E3F510568F08DC0FB
:10243000D7C05F3FECF3983EDCF3869577956795C0
:10244000B795F7959F5FC9F7880F911D969587956A
:1024500097F90895E1E0660F771F881FBB1F621789
:1024600073078407BA0720F0621B730B840BBA0B47
:10247000EE1F88F7E095089598D088F09F5790F068
:10248000B92F9927B751A0F0D1F0660F771F881F99
:10249000991F1AF0BA95C9F712C0B13081F09FD0D8
:1024A000B1E008959CC0672F782F8827B85F39F076
:1024B000B93FCCF3869577956795B395D9F73EF4F8
:1024C00090958095709561957F4F8F4F9F4F0895A0
:1024D000E89409C097FB3EF49095809570956195BE
:1024E0007F4F8F4F9F4F9923A9F0F92F96E9BB2774
:1024F0009395F695879577956795B795F111F8CFF0
:10250000FAF4BB0F11F460FF1BC06F5F7F4F8F4F5A
:102510009F4F16C0882311F096E911C0772321F050
:102520009EE8872F762F05C0662371F096E8862FE8
:1025300070E060E02AF09A95660F771F881FDAF73F
:10254000880F9695879597F9089597F99F6780E882
:1025500070E060E008959FEF80EC089500240A94F5
:102560001616170618060906089500240A9412166E
:102570001306140605060895092E0394000C11F4A1
:10258000882352F0BB0F40F4BF2B11F460FF04C04E
:102590006F5F7F4F8F4F9F4F089557FD9058440FA7
:1025A000551F59F05F3F71F04795880F97FB991FB2
:1025B00061F09F3F79F0879508951216130614066F
:1025C000551FF2CF4695F1DF08C0161617061806FC
:1025D000991FF1CF86957105610508940895E894D7
:1025E000BB2766277727CB0197F908950EF0C8C05F
:1025F000B2CF6894AACFD9DFC8F39923D1F3C6F339
:10260000DF93CF931F930F93FF92C92FDD2788236A
:102610002AF02197660F771F881FDAF720E030E055
:1026200040E85FEB9FE3883920F0803E30F0219650
:102630008F7756DEECE3F2E003C052DEE9E6F2E02B
:10264000ADD08B01BE01EC01FB2E6F577109759562
:10265000771F880B990B3EDF28E132E741E35FE308
:1026600016D0AF2D9801AE01FF900F911F91CF9121
:10267000DF9147DE81CF0BD07FCF70DF28F075DF91
:1026800018F0952309F061CF66CF1124A9CF85DF1B
:10269000A0F3959FD1F3950F50E0551F629FF00175
:1026A000729FBB27F00DB11D639FAA27F00DB11DCE
:1026B000AA1F649F6627B00DA11D661F829F222757
:1026C000B00DA11D621F739FB00DA11D621F839FDE
:1026D000A00D611D221F749F3327A00D611D231FB4
:1026E000849F600D211D822F762F6A2F11249F5702
:1026F00050408AF0E1F088234AF0EE0FFF1FBB1F25
:10270000661F771F881F91505040A9F79E3F5105C3
:1027100070F01BCF65CF5F3FECF3983EDCF38695FE
:1027200077956795B795F795E7959F5FC1F7FE2B6E
:10273000880F911D9695879597F9089554D020F0AC
:102740009F3708F44DCF01C01BC0882371F4772355
:1027500021F09850872B762F07C0662311F4992714
:102760000DC09051862B70E060E02AF09A95660FBC
:10277000771F881FDAF7880F9695879597F9089540
:102780009F3F31F0915020F4879577956795B795E5
:10279000880F911D9695879597F90895DF93CF93AC
:1027A0001F930F93FF92EF92DF927B018C0168944D
:1027B00005C0DA2EEF016BDFFE01E894A5912591AB
:1027C000359145915591AEF3EF019BDDFE019701E7
:1027D000A801DA9479F7DF90EF90FF900F911F91A5
:1027E000CF91DF910895E1DEA0F0BEE7B91788F43C
:1027F000BB279F3860F41616B11D672F782F8827E6
:10280000985FF7CF869577956795B11D9395963923
:10281000C8F3089587FB082E062687FD819567FD7E
:1028200061951FD00EF4919507FC81950895AA1B20
:10283000BB1B51E107C0AA1FBB1FA617B70710F0AB
:10284000A61BB70B881F991F5A95A9F780959095DD
:10285000BC01CD010895EE0FFF1F0590F491E02D0E
:102860001994991B79E004C0991F961708F0961BDC
:10287000881F7A95C9F78095089503D0808199279C
:102880000895E0ECF1E0378537FDFDCF3485386001
:102890003487FC01E050F04F0895F3DF808191818F
:1028A0000895262FE0ECF1E0378537FDFDCF348524
:1028B000377F3487378531FF09C036E3328738EDFB
:1028C00034BF31E03387378537FDFDCF33E33287BF
:1028D000808391831282248325E3228728ED31E0CF
:1028E00024BF338701960895DCDF272FDBCFF894D0
:0228F000FFCF18
:1028F200AB06AB06AB06AB06AB06AB06AB06AB064E
:042902002818203839
:00000001FF
